{
  "contractName": "HousesCollection",
  "abi": [
    {
      "inputs": [],
      "stateMutability": "nonpayable",
      "type": "constructor"
    },
    {
      "anonymous": false,
      "inputs": [
        {
          "indexed": true,
          "internalType": "address",
          "name": "owner",
          "type": "address"
        },
        {
          "indexed": true,
          "internalType": "address",
          "name": "approved",
          "type": "address"
        },
        {
          "indexed": true,
          "internalType": "uint256",
          "name": "tokenId",
          "type": "uint256"
        }
      ],
      "name": "Approval",
      "type": "event"
    },
    {
      "anonymous": false,
      "inputs": [
        {
          "indexed": true,
          "internalType": "address",
          "name": "owner",
          "type": "address"
        },
        {
          "indexed": true,
          "internalType": "address",
          "name": "operator",
          "type": "address"
        },
        {
          "indexed": false,
          "internalType": "bool",
          "name": "approved",
          "type": "bool"
        }
      ],
      "name": "ApprovalForAll",
      "type": "event"
    },
    {
      "anonymous": false,
      "inputs": [
        {
          "indexed": false,
          "internalType": "uint256",
          "name": "_fromTokenId",
          "type": "uint256"
        },
        {
          "indexed": false,
          "internalType": "uint256",
          "name": "_toTokenId",
          "type": "uint256"
        }
      ],
      "name": "BatchMetadataUpdate",
      "type": "event"
    },
    {
      "anonymous": false,
      "inputs": [
        {
          "indexed": false,
          "internalType": "uint256",
          "name": "_tokenId",
          "type": "uint256"
        }
      ],
      "name": "MetadataUpdate",
      "type": "event"
    },
    {
      "anonymous": false,
      "inputs": [
        {
          "indexed": true,
          "internalType": "address",
          "name": "previousOwner",
          "type": "address"
        },
        {
          "indexed": true,
          "internalType": "address",
          "name": "newOwner",
          "type": "address"
        }
      ],
      "name": "OwnershipTransferred",
      "type": "event"
    },
    {
      "anonymous": false,
      "inputs": [
        {
          "indexed": true,
          "internalType": "address",
          "name": "from",
          "type": "address"
        },
        {
          "indexed": true,
          "internalType": "address",
          "name": "to",
          "type": "address"
        },
        {
          "indexed": true,
          "internalType": "uint256",
          "name": "tokenId",
          "type": "uint256"
        }
      ],
      "name": "Transfer",
      "type": "event"
    },
    {
      "inputs": [],
      "name": "COST",
      "outputs": [
        {
          "internalType": "uint256",
          "name": "",
          "type": "uint256"
        }
      ],
      "stateMutability": "view",
      "type": "function",
      "constant": true
    },
    {
      "inputs": [],
      "name": "MAX_SUPPLY",
      "outputs": [
        {
          "internalType": "uint256",
          "name": "",
          "type": "uint256"
        }
      ],
      "stateMutability": "view",
      "type": "function",
      "constant": true
    },
    {
      "inputs": [],
      "name": "TOTAL_SUPPLY",
      "outputs": [
        {
          "internalType": "uint256",
          "name": "",
          "type": "uint256"
        }
      ],
      "stateMutability": "view",
      "type": "function",
      "constant": true
    },
    {
      "inputs": [
        {
          "internalType": "address",
          "name": "to",
          "type": "address"
        },
        {
          "internalType": "uint256",
          "name": "tokenId",
          "type": "uint256"
        }
      ],
      "name": "approve",
      "outputs": [],
      "stateMutability": "nonpayable",
      "type": "function"
    },
    {
      "inputs": [
        {
          "internalType": "address",
          "name": "owner",
          "type": "address"
        }
      ],
      "name": "balanceOf",
      "outputs": [
        {
          "internalType": "uint256",
          "name": "",
          "type": "uint256"
        }
      ],
      "stateMutability": "view",
      "type": "function",
      "constant": true
    },
    {
      "inputs": [
        {
          "internalType": "uint256",
          "name": "tokenId",
          "type": "uint256"
        }
      ],
      "name": "getApproved",
      "outputs": [
        {
          "internalType": "address",
          "name": "",
          "type": "address"
        }
      ],
      "stateMutability": "view",
      "type": "function",
      "constant": true
    },
    {
      "inputs": [
        {
          "internalType": "uint256",
          "name": "",
          "type": "uint256"
        }
      ],
      "name": "houses",
      "outputs": [
        {
          "internalType": "uint256",
          "name": "number",
          "type": "uint256"
        },
        {
          "internalType": "string",
          "name": "color",
          "type": "string"
        }
      ],
      "stateMutability": "view",
      "type": "function",
      "constant": true
    },
    {
      "inputs": [
        {
          "internalType": "address",
          "name": "owner",
          "type": "address"
        },
        {
          "internalType": "address",
          "name": "operator",
          "type": "address"
        }
      ],
      "name": "isApprovedForAll",
      "outputs": [
        {
          "internalType": "bool",
          "name": "",
          "type": "bool"
        }
      ],
      "stateMutability": "view",
      "type": "function",
      "constant": true
    },
    {
      "inputs": [],
      "name": "name",
      "outputs": [
        {
          "internalType": "string",
          "name": "",
          "type": "string"
        }
      ],
      "stateMutability": "view",
      "type": "function",
      "constant": true
    },
    {
      "inputs": [],
      "name": "owner",
      "outputs": [
        {
          "internalType": "address",
          "name": "",
          "type": "address"
        }
      ],
      "stateMutability": "view",
      "type": "function",
      "constant": true
    },
    {
      "inputs": [
        {
          "internalType": "uint256",
          "name": "tokenId",
          "type": "uint256"
        }
      ],
      "name": "ownerOf",
      "outputs": [
        {
          "internalType": "address",
          "name": "",
          "type": "address"
        }
      ],
      "stateMutability": "view",
      "type": "function",
      "constant": true
    },
    {
      "inputs": [],
      "name": "renounceOwnership",
      "outputs": [],
      "stateMutability": "nonpayable",
      "type": "function"
    },
    {
      "inputs": [
        {
          "internalType": "address",
          "name": "from",
          "type": "address"
        },
        {
          "internalType": "address",
          "name": "to",
          "type": "address"
        },
        {
          "internalType": "uint256",
          "name": "tokenId",
          "type": "uint256"
        }
      ],
      "name": "safeTransferFrom",
      "outputs": [],
      "stateMutability": "nonpayable",
      "type": "function"
    },
    {
      "inputs": [
        {
          "internalType": "address",
          "name": "from",
          "type": "address"
        },
        {
          "internalType": "address",
          "name": "to",
          "type": "address"
        },
        {
          "internalType": "uint256",
          "name": "tokenId",
          "type": "uint256"
        },
        {
          "internalType": "bytes",
          "name": "data",
          "type": "bytes"
        }
      ],
      "name": "safeTransferFrom",
      "outputs": [],
      "stateMutability": "nonpayable",
      "type": "function"
    },
    {
      "inputs": [
        {
          "internalType": "address",
          "name": "operator",
          "type": "address"
        },
        {
          "internalType": "bool",
          "name": "approved",
          "type": "bool"
        }
      ],
      "name": "setApprovalForAll",
      "outputs": [],
      "stateMutability": "nonpayable",
      "type": "function"
    },
    {
      "inputs": [
        {
          "internalType": "bytes4",
          "name": "interfaceId",
          "type": "bytes4"
        }
      ],
      "name": "supportsInterface",
      "outputs": [
        {
          "internalType": "bool",
          "name": "",
          "type": "bool"
        }
      ],
      "stateMutability": "view",
      "type": "function",
      "constant": true
    },
    {
      "inputs": [],
      "name": "symbol",
      "outputs": [
        {
          "internalType": "string",
          "name": "",
          "type": "string"
        }
      ],
      "stateMutability": "view",
      "type": "function",
      "constant": true
    },
    {
      "inputs": [
        {
          "internalType": "uint256",
          "name": "tokenId",
          "type": "uint256"
        }
      ],
      "name": "tokenURI",
      "outputs": [
        {
          "internalType": "string",
          "name": "",
          "type": "string"
        }
      ],
      "stateMutability": "view",
      "type": "function",
      "constant": true
    },
    {
      "inputs": [
        {
          "internalType": "address",
          "name": "from",
          "type": "address"
        },
        {
          "internalType": "address",
          "name": "to",
          "type": "address"
        },
        {
          "internalType": "uint256",
          "name": "tokenId",
          "type": "uint256"
        }
      ],
      "name": "transferFrom",
      "outputs": [],
      "stateMutability": "nonpayable",
      "type": "function"
    },
    {
      "inputs": [
        {
          "internalType": "address",
          "name": "newOwner",
          "type": "address"
        }
      ],
      "name": "transferOwnership",
      "outputs": [],
      "stateMutability": "nonpayable",
      "type": "function"
    },
    {
      "inputs": [
        {
          "internalType": "uint256",
          "name": "tokenId",
          "type": "uint256"
        }
      ],
      "name": "mint",
      "outputs": [
        {
          "internalType": "uint256",
          "name": "",
          "type": "uint256"
        }
      ],
      "stateMutability": "payable",
      "type": "function",
      "payable": true
    },
    {
      "inputs": [
        {
          "internalType": "uint256",
          "name": "tokenId",
          "type": "uint256"
        }
      ],
      "name": "getOwnerOfTokenId",
      "outputs": [
        {
          "internalType": "address",
          "name": "",
          "type": "address"
        }
      ],
      "stateMutability": "view",
      "type": "function",
      "constant": true
    },
    {
      "inputs": [],
      "name": "contractURI",
      "outputs": [
        {
          "internalType": "string",
          "name": "",
          "type": "string"
        }
      ],
      "stateMutability": "pure",
      "type": "function",
      "constant": true
    },
    {
      "inputs": [],
      "name": "getHouses",
      "outputs": [
        {
          "components": [
            {
              "internalType": "uint256",
              "name": "number",
              "type": "uint256"
            },
            {
              "internalType": "string",
              "name": "color",
              "type": "string"
            }
          ],
          "internalType": "struct HousesCollection.House[]",
          "name": "",
          "type": "tuple[]"
        }
      ],
      "stateMutability": "view",
      "type": "function",
      "constant": true
    }
  ],
  "bytecode": "0x60806040526000600c556040518061010001604052806040518060400160405280600381526020017f726564000000000000000000000000000000000000000000000000000000000081525081526020016040518060400160405280600681526020017f6f72616e6765000000000000000000000000000000000000000000000000000081525081526020016040518060400160405280600681526020017f79656c6c6f77000000000000000000000000000000000000000000000000000081525081526020016040518060400160405280600481526020017f626c75650000000000000000000000000000000000000000000000000000000081525081526020016040518060400160405280600581526020017f677265656e00000000000000000000000000000000000000000000000000000081525081526020016040518060400160405280600481526020017f677261790000000000000000000000000000000000000000000000000000000081525081526020016040518060400160405280600581526020017f776869746500000000000000000000000000000000000000000000000000000081525081526020016040518060400160405280600581526020017f626c61636b000000000000000000000000000000000000000000000000000000815250815250600d906008620001fd929190620004f4565b503480156200020b57600080fd5b506040518060400160405280600681526020017f486f7573657300000000000000000000000000000000000000000000000000008152506040518060400160405280600381526020017f48534500000000000000000000000000000000000000000000000000000000008152508160009080519060200190620002909291906200055b565b508060019080519060200190620002a99291906200055b565b505050620002cc620002c06200042660201b60201c565b6200042e60201b60201c565b6000600190505b600a81116200041f5760086040518060400160405280838152602001600d808054905085620003039190620006b2565b81548110620003175762000316620006ea565b5b9060005260206000200180546200032e9062000748565b80601f01602080910402602001604051908101604052809291908181526020018280546200035c9062000748565b8015620003ad5780601f106200038157610100808354040283529160200191620003ad565b820191906000526020600020905b8154815290600101906020018083116200038f57829003601f168201915b50505050508152509080600181540180825580915050600190039060005260206000209060020201600090919091909150600082015181600001556020820151816001019080519060200190620004069291906200055b565b50505080806200041690620007ac565b915050620002d3565b50620007f9565b600033905090565b6000600760009054906101000a900473ffffffffffffffffffffffffffffffffffffffff16905081600760006101000a81548173ffffffffffffffffffffffffffffffffffffffff021916908373ffffffffffffffffffffffffffffffffffffffff1602179055508173ffffffffffffffffffffffffffffffffffffffff168173ffffffffffffffffffffffffffffffffffffffff167f8be0079c531659141344cd1fd0a4f28419497f9722a3daafe3b4186f6b6457e060405160405180910390a35050565b82805482825590600052602060002090810192821562000548579160200282015b8281111562000547578251829080519060200190620005369291906200055b565b509160200191906001019062000515565b5b509050620005579190620005ec565b5090565b828054620005699062000748565b90600052602060002090601f0160209004810192826200058d5760008555620005d9565b82601f10620005a857805160ff1916838001178555620005d9565b82800160010185558215620005d9579182015b82811115620005d8578251825591602001919060010190620005bb565b5b509050620005e8919062000614565b5090565b5b8082111562000610576000818162000606919062000633565b50600101620005ed565b5090565b5b808211156200062f57600081600090555060010162000615565b5090565b508054620006419062000748565b6000825580601f1062000655575062000676565b601f01602090049060005260206000209081019062000675919062000614565b5b50565b6000819050919050565b7f4e487b7100000000000000000000000000000000000000000000000000000000600052601260045260246000fd5b6000620006bf8262000679565b9150620006cc8362000679565b925082620006df57620006de62000683565b5b828206905092915050565b7f4e487b7100000000000000000000000000000000000000000000000000000000600052603260045260246000fd5b7f4e487b7100000000000000000000000000000000000000000000000000000000600052602260045260246000fd5b600060028204905060018216806200076157607f821691505b60208210810362000777576200077662000719565b5b50919050565b7f4e487b7100000000000000000000000000000000000000000000000000000000600052601160045260246000fd5b6000620007b98262000679565b91507fffffffffffffffffffffffffffffffffffffffffffffffffffffffffffffffff8203620007ee57620007ed6200077d565b5b600182019050919050565b61396480620008096000396000f3fe60806040526004361061014b5760003560e01c8063902d55a5116100b6578063bf8fbbd21161006f578063bf8fbbd2146104aa578063c87b56dd146104d5578063e8a3d48514610512578063e985e9c51461053d578063f2fde38b1461057a578063fd5f33ec146105a35761014b565b8063902d55a51461039457806395d89b41146103bf578063a0712d68146103ea578063a22cb4651461041a578063aeda852f14610443578063b88d4fde146104815761014b565b806342842e0e1161010857806342842e0e1461027257806348688b3c1461029b5780636352211e146102d857806370a0823114610315578063715018a6146103525780638da5cb5b146103695761014b565b806301ffc9a71461015057806306fdde031461018d578063081812fc146101b8578063095ea7b3146101f557806323b872dd1461021e57806332cb6b0c14610247575b600080fd5b34801561015c57600080fd5b5061017760048036038101906101729190612487565b6105ce565b60405161018491906124cf565b60405180910390f35b34801561019957600080fd5b506101a261062f565b6040516101af9190612583565b60405180910390f35b3480156101c457600080fd5b506101df60048036038101906101da91906125db565b6106c1565b6040516101ec9190612649565b60405180910390f35b34801561020157600080fd5b5061021c60048036038101906102179190612690565b610707565b005b34801561022a57600080fd5b50610245600480360381019061024091906126d0565b61081e565b005b34801561025357600080fd5b5061025c61087e565b6040516102699190612732565b60405180910390f35b34801561027e57600080fd5b50610299600480360381019061029491906126d0565b610883565b005b3480156102a757600080fd5b506102c260048036038101906102bd91906125db565b6108a3565b6040516102cf9190612649565b60405180910390f35b3480156102e457600080fd5b506102ff60048036038101906102fa91906125db565b6108e0565b60405161030c9190612649565b60405180910390f35b34801561032157600080fd5b5061033c6004803603810190610337919061274d565b610966565b6040516103499190612732565b60405180910390f35b34801561035e57600080fd5b50610367610a1d565b005b34801561037557600080fd5b5061037e610a31565b60405161038b9190612649565b60405180910390f35b3480156103a057600080fd5b506103a9610a5b565b6040516103b69190612732565b60405180910390f35b3480156103cb57600080fd5b506103d4610a60565b6040516103e19190612583565b60405180910390f35b61040460048036038101906103ff91906125db565b610af2565b6040516104119190612732565b60405180910390f35b34801561042657600080fd5b50610441600480360381019061043c91906127a6565b610def565b005b34801561044f57600080fd5b5061046a600480360381019061046591906125db565b610e05565b6040516104789291906127e6565b60405180910390f35b34801561048d57600080fd5b506104a860048036038101906104a3919061294b565b610ec1565b005b3480156104b657600080fd5b506104bf610f23565b6040516104cc9190612732565b60405180910390f35b3480156104e157600080fd5b506104fc60048036038101906104f791906125db565b610f2d565b6040516105099190612583565b60405180910390f35b34801561051e57600080fd5b5061052761103f565b6040516105349190612583565b60405180910390f35b34801561054957600080fd5b50610564600480360381019061055f91906129ce565b61105f565b60405161057191906124cf565b60405180910390f35b34801561058657600080fd5b506105a1600480360381019061059c919061274d565b6110f3565b005b3480156105af57600080fd5b506105b8611176565b6040516105c59190612b66565b60405180910390f35b6000634906490660e01b7bffffffffffffffffffffffffffffffffffffffffffffffffffffffff1916827bffffffffffffffffffffffffffffffffffffffffffffffffffffffff19161480610628575061062782611271565b5b9050919050565b60606000805461063e90612bb7565b80601f016020809104026020016040519081016040528092919081815260200182805461066a90612bb7565b80156106b75780601f1061068c576101008083540402835291602001916106b7565b820191906000526020600020905b81548152906001019060200180831161069a57829003601f168201915b5050505050905090565b60006106cc82611353565b6004600083815260200190815260200160002060009054906101000a900473ffffffffffffffffffffffffffffffffffffffff169050919050565b6000610712826108e0565b90508073ffffffffffffffffffffffffffffffffffffffff168373ffffffffffffffffffffffffffffffffffffffff1603610782576040517f08c379a000000000000000000000000000000000000000000000000000000000815260040161077990612c5a565b60405180910390fd5b8073ffffffffffffffffffffffffffffffffffffffff166107a161139e565b73ffffffffffffffffffffffffffffffffffffffff1614806107d057506107cf816107ca61139e565b61105f565b5b61080f576040517f08c379a000000000000000000000000000000000000000000000000000000000815260040161080690612cec565b60405180910390fd5b61081983836113a6565b505050565b61082f61082961139e565b8261145f565b61086e576040517f08c379a000000000000000000000000000000000000000000000000000000000815260040161086590612d7e565b60405180910390fd5b6108798383836114f4565b505050565b600a81565b61089e83838360405180602001604052806000815250610ec1565b505050565b6000600b600083815260200190815260200160002060009054906101000a900473ffffffffffffffffffffffffffffffffffffffff169050919050565b6000806108ec836117ed565b9050600073ffffffffffffffffffffffffffffffffffffffff168173ffffffffffffffffffffffffffffffffffffffff160361095d576040517f08c379a000000000000000000000000000000000000000000000000000000000815260040161095490612dea565b60405180910390fd5b80915050919050565b60008073ffffffffffffffffffffffffffffffffffffffff168273ffffffffffffffffffffffffffffffffffffffff16036109d6576040517f08c379a00000000000000000000000000000000000000000000000000000000081526004016109cd90612e7c565b60405180910390fd5b600360008373ffffffffffffffffffffffffffffffffffffffff1673ffffffffffffffffffffffffffffffffffffffff168152602001908152602001600020549050919050565b610a2561182a565b610a2f60006118a8565b565b6000600760009054906101000a900473ffffffffffffffffffffffffffffffffffffffff16905090565b600381565b606060018054610a6f90612bb7565b80601f0160208091040260200160405190810160405280929190818152602001828054610a9b90612bb7565b8015610ae85780601f10610abd57610100808354040283529160200191610ae8565b820191906000526020600020905b815481529060010190602001808311610acb57829003601f168201915b5050505050905090565b60006008805490508211158015610b095750600082115b610b48576040517f08c379a0000000000000000000000000000000000000000000000000000000008152600401610b3f90612ee8565b60405180910390fd5b6000600960008481526020019081526020016000205414610b9e576040517f08c379a0000000000000000000000000000000000000000000000000000000008152600401610b9590612f54565b60405180910390fd5b600a600c541115610be4576040517f08c379a0000000000000000000000000000000000000000000000000000000008152600401610bdb90612fc0565b60405180910390fd5b6003600a60003373ffffffffffffffffffffffffffffffffffffffff1673ffffffffffffffffffffffffffffffffffffffff168152602001908152602001600020805490501115610c6a576040517f08c379a0000000000000000000000000000000000000000000000000000000008152600401610c6190613052565b60405180910390fd5b6509184e72a000341015610cb3576040517f08c379a0000000000000000000000000000000000000000000000000000000008152600401610caa906130e4565b60405180910390fd5b610cbd338361196e565b610cee82610cca8461198c565b604051602001610cda9190613224565b604051602081830303815290604052611a5a565b600960008381526020019081526020016000206000815480929190610d1290613280565b9190505550600c6000815480929190610d2a90613280565b9190505550600a60003373ffffffffffffffffffffffffffffffffffffffff1673ffffffffffffffffffffffffffffffffffffffff16815260200190815260200160002082908060018154018082558091505060019003906000526020600020016000909190919091505533600b600084815260200190815260200160002060006101000a81548173ffffffffffffffffffffffffffffffffffffffff021916908373ffffffffffffffffffffffffffffffffffffffff160217905550819050919050565b610e01610dfa61139e565b8383611b05565b5050565b60088181548110610e1557600080fd5b9060005260206000209060020201600091509050806000015490806001018054610e3e90612bb7565b80601f0160208091040260200160405190810160405280929190818152602001828054610e6a90612bb7565b8015610eb75780601f10610e8c57610100808354040283529160200191610eb7565b820191906000526020600020905b815481529060010190602001808311610e9a57829003601f168201915b5050505050905082565b610ed2610ecc61139e565b8361145f565b610f11576040517f08c379a0000000000000000000000000000000000000000000000000000000008152600401610f0890612d7e565b60405180910390fd5b610f1d84848484611c71565b50505050565b6509184e72a00081565b6060610f3882611353565b6000600660008481526020019081526020016000208054610f5890612bb7565b80601f0160208091040260200160405190810160405280929190818152602001828054610f8490612bb7565b8015610fd15780601f10610fa657610100808354040283529160200191610fd1565b820191906000526020600020905b815481529060010190602001808311610fb457829003601f168201915b505050505090506000610fe2611ccd565b90506000815103610ff757819250505061103a565b60008251111561102c5780826040516020016110149291906132c8565b6040516020818303038152906040529250505061103a565b61103584611ce4565b925050505b919050565b60606040518060e0016040528060a6815260200161388960a69139905090565b6000600560008473ffffffffffffffffffffffffffffffffffffffff1673ffffffffffffffffffffffffffffffffffffffff16815260200190815260200160002060008373ffffffffffffffffffffffffffffffffffffffff1673ffffffffffffffffffffffffffffffffffffffff16815260200190815260200160002060009054906101000a900460ff16905092915050565b6110fb61182a565b600073ffffffffffffffffffffffffffffffffffffffff168173ffffffffffffffffffffffffffffffffffffffff160361116a576040517f08c379a00000000000000000000000000000000000000000000000000000000081526004016111619061335e565b60405180910390fd5b611173816118a8565b50565b60606008805480602002602001604051908101604052809291908181526020016000905b828210156112685783829060005260206000209060020201604051806040016040529081600082015481526020016001820180546111d790612bb7565b80601f016020809104026020016040519081016040528092919081815260200182805461120390612bb7565b80156112505780601f1061122557610100808354040283529160200191611250565b820191906000526020600020905b81548152906001019060200180831161123357829003601f168201915b5050505050815250508152602001906001019061119a565b50505050905090565b60007f80ac58cd000000000000000000000000000000000000000000000000000000007bffffffffffffffffffffffffffffffffffffffffffffffffffffffff1916827bffffffffffffffffffffffffffffffffffffffffffffffffffffffff1916148061133c57507f5b5e139f000000000000000000000000000000000000000000000000000000007bffffffffffffffffffffffffffffffffffffffffffffffffffffffff1916827bffffffffffffffffffffffffffffffffffffffffffffffffffffffff1916145b8061134c575061134b82611d4c565b5b9050919050565b61135c81611db6565b61139b576040517f08c379a000000000000000000000000000000000000000000000000000000000815260040161139290612dea565b60405180910390fd5b50565b600033905090565b816004600083815260200190815260200160002060006101000a81548173ffffffffffffffffffffffffffffffffffffffff021916908373ffffffffffffffffffffffffffffffffffffffff160217905550808273ffffffffffffffffffffffffffffffffffffffff16611419836108e0565b73ffffffffffffffffffffffffffffffffffffffff167f8c5be1e5ebec7d5bd14f71427d1e84f3dd0314c0f7b2291e5b200ac8c7c3b92560405160405180910390a45050565b60008061146b836108e0565b90508073ffffffffffffffffffffffffffffffffffffffff168473ffffffffffffffffffffffffffffffffffffffff1614806114ad57506114ac818561105f565b5b806114eb57508373ffffffffffffffffffffffffffffffffffffffff166114d3846106c1565b73ffffffffffffffffffffffffffffffffffffffff16145b91505092915050565b8273ffffffffffffffffffffffffffffffffffffffff16611514826108e0565b73ffffffffffffffffffffffffffffffffffffffff161461156a576040517f08c379a0000000000000000000000000000000000000000000000000000000008152600401611561906133f0565b60405180910390fd5b600073ffffffffffffffffffffffffffffffffffffffff168273ffffffffffffffffffffffffffffffffffffffff16036115d9576040517f08c379a00000000000000000000000000000000000000000000000000000000081526004016115d090613482565b60405180910390fd5b6115e68383836001611df7565b8273ffffffffffffffffffffffffffffffffffffffff16611606826108e0565b73ffffffffffffffffffffffffffffffffffffffff161461165c576040517f08c379a0000000000000000000000000000000000000000000000000000000008152600401611653906133f0565b60405180910390fd5b6004600082815260200190815260200160002060006101000a81549073ffffffffffffffffffffffffffffffffffffffff02191690556001600360008573ffffffffffffffffffffffffffffffffffffffff1673ffffffffffffffffffffffffffffffffffffffff168152602001908152602001600020600082825403925050819055506001600360008473ffffffffffffffffffffffffffffffffffffffff1673ffffffffffffffffffffffffffffffffffffffff16815260200190815260200160002060008282540192505081905550816002600083815260200190815260200160002060006101000a81548173ffffffffffffffffffffffffffffffffffffffff021916908373ffffffffffffffffffffffffffffffffffffffff160217905550808273ffffffffffffffffffffffffffffffffffffffff168473ffffffffffffffffffffffffffffffffffffffff167fddf252ad1be2c89b69c2b068fc378daa952ba7f163c4a11628f55a4df523b3ef60405160405180910390a46117e88383836001611dfd565b505050565b60006002600083815260200190815260200160002060009054906101000a900473ffffffffffffffffffffffffffffffffffffffff169050919050565b61183261139e565b73ffffffffffffffffffffffffffffffffffffffff16611850610a31565b73ffffffffffffffffffffffffffffffffffffffff16146118a6576040517f08c379a000000000000000000000000000000000000000000000000000000000815260040161189d906134ee565b60405180910390fd5b565b6000600760009054906101000a900473ffffffffffffffffffffffffffffffffffffffff16905081600760006101000a81548173ffffffffffffffffffffffffffffffffffffffff021916908373ffffffffffffffffffffffffffffffffffffffff1602179055508173ffffffffffffffffffffffffffffffffffffffff168173ffffffffffffffffffffffffffffffffffffffff167f8be0079c531659141344cd1fd0a4f28419497f9722a3daafe3b4186f6b6457e060405160405180910390a35050565b611988828260405180602001604052806000815250611e03565b5050565b60606000600161199b84611e5e565b01905060008167ffffffffffffffff8111156119ba576119b9612820565b5b6040519080825280601f01601f1916602001820160405280156119ec5781602001600182028036833780820191505090505b509050600082602001820190505b600115611a4f578080600190039150507f3031323334353637383961626364656600000000000000000000000000000000600a86061a8153600a8581611a4357611a4261350e565b5b049450600085036119fa575b819350505050919050565b611a6382611db6565b611aa2576040517f08c379a0000000000000000000000000000000000000000000000000000000008152600401611a99906135af565b60405180910390fd5b80600660008481526020019081526020016000209080519060200190611ac9929190612378565b507ff8e1a15aba9398e019f0b49df1a4fde98ee17ae345cb5f6b5e2c27f5033e8ce782604051611af99190612732565b60405180910390a15050565b8173ffffffffffffffffffffffffffffffffffffffff168373ffffffffffffffffffffffffffffffffffffffff1603611b73576040517f08c379a0000000000000000000000000000000000000000000000000000000008152600401611b6a9061361b565b60405180910390fd5b80600560008573ffffffffffffffffffffffffffffffffffffffff1673ffffffffffffffffffffffffffffffffffffffff16815260200190815260200160002060008473ffffffffffffffffffffffffffffffffffffffff1673ffffffffffffffffffffffffffffffffffffffff16815260200190815260200160002060006101000a81548160ff0219169083151502179055508173ffffffffffffffffffffffffffffffffffffffff168373ffffffffffffffffffffffffffffffffffffffff167f17307eab39ab6107e8899845ad3d59bd9653f200f220920489ca2b5937696c3183604051611c6491906124cf565b60405180910390a3505050565b611c7c8484846114f4565b611c8884848484611fb1565b611cc7576040517f08c379a0000000000000000000000000000000000000000000000000000000008152600401611cbe906136ad565b60405180910390fd5b50505050565b606060405180602001604052806000815250905090565b6060611cef82611353565b6000611cf9611ccd565b90506000815111611d195760405180602001604052806000815250611d44565b80611d238461198c565b604051602001611d349291906132c8565b6040516020818303038152906040525b915050919050565b60007f01ffc9a7000000000000000000000000000000000000000000000000000000007bffffffffffffffffffffffffffffffffffffffffffffffffffffffff1916827bffffffffffffffffffffffffffffffffffffffffffffffffffffffff1916149050919050565b60008073ffffffffffffffffffffffffffffffffffffffff16611dd8836117ed565b73ffffffffffffffffffffffffffffffffffffffff1614159050919050565b50505050565b50505050565b611e0d8383612138565b611e1a6000848484611fb1565b611e59576040517f08c379a0000000000000000000000000000000000000000000000000000000008152600401611e50906136ad565b60405180910390fd5b505050565b600080600090507a184f03e93ff9f4daa797ed6e38ed64bf6a1f0100000000000000008310611ebc577a184f03e93ff9f4daa797ed6e38ed64bf6a1f0100000000000000008381611eb257611eb161350e565b5b0492506040810190505b6d04ee2d6d415b85acef81000000008310611ef9576d04ee2d6d415b85acef81000000008381611eef57611eee61350e565b5b0492506020810190505b662386f26fc100008310611f2857662386f26fc100008381611f1e57611f1d61350e565b5b0492506010810190505b6305f5e1008310611f51576305f5e1008381611f4757611f4661350e565b5b0492506008810190505b6127108310611f76576127108381611f6c57611f6b61350e565b5b0492506004810190505b60648310611f995760648381611f8f57611f8e61350e565b5b0492506002810190505b600a8310611fa8576001810190505b80915050919050565b6000611fd28473ffffffffffffffffffffffffffffffffffffffff16612355565b1561212b578373ffffffffffffffffffffffffffffffffffffffff1663150b7a02611ffb61139e565b8786866040518563ffffffff1660e01b815260040161201d9493929190613722565b6020604051808303816000875af192505050801561205957506040513d601f19601f820116820180604052508101906120569190613783565b60015b6120db573d8060008114612089576040519150601f19603f3d011682016040523d82523d6000602084013e61208e565b606091505b5060008151036120d3576040517f08c379a00000000000000000000000000000000000000000000000000000000081526004016120ca906136ad565b60405180910390fd5b805181602001fd5b63150b7a0260e01b7bffffffffffffffffffffffffffffffffffffffffffffffffffffffff1916817bffffffffffffffffffffffffffffffffffffffffffffffffffffffff191614915050612130565b600190505b949350505050565b600073ffffffffffffffffffffffffffffffffffffffff168273ffffffffffffffffffffffffffffffffffffffff16036121a7576040517f08c379a000000000000000000000000000000000000000000000000000000000815260040161219e906137fc565b60405180910390fd5b6121b081611db6565b156121f0576040517f08c379a00000000000000000000000000000000000000000000000000000000081526004016121e790613868565b60405180910390fd5b6121fe600083836001611df7565b61220781611db6565b15612247576040517f08c379a000000000000000000000000000000000000000000000000000000000815260040161223e90613868565b60405180910390fd5b6001600360008473ffffffffffffffffffffffffffffffffffffffff1673ffffffffffffffffffffffffffffffffffffffff16815260200190815260200160002060008282540192505081905550816002600083815260200190815260200160002060006101000a81548173ffffffffffffffffffffffffffffffffffffffff021916908373ffffffffffffffffffffffffffffffffffffffff160217905550808273ffffffffffffffffffffffffffffffffffffffff16600073ffffffffffffffffffffffffffffffffffffffff167fddf252ad1be2c89b69c2b068fc378daa952ba7f163c4a11628f55a4df523b3ef60405160405180910390a4612351600083836001611dfd565b5050565b6000808273ffffffffffffffffffffffffffffffffffffffff163b119050919050565b82805461238490612bb7565b90600052602060002090601f0160209004810192826123a657600085556123ed565b82601f106123bf57805160ff19168380011785556123ed565b828001600101855582156123ed579182015b828111156123ec5782518255916020019190600101906123d1565b5b5090506123fa91906123fe565b5090565b5b808211156124175760008160009055506001016123ff565b5090565b6000604051905090565b600080fd5b600080fd5b60007fffffffff0000000000000000000000000000000000000000000000000000000082169050919050565b6124648161242f565b811461246f57600080fd5b50565b6000813590506124818161245b565b92915050565b60006020828403121561249d5761249c612425565b5b60006124ab84828501612472565b91505092915050565b60008115159050919050565b6124c9816124b4565b82525050565b60006020820190506124e460008301846124c0565b92915050565b600081519050919050565b600082825260208201905092915050565b60005b83811015612524578082015181840152602081019050612509565b83811115612533576000848401525b50505050565b6000601f19601f8301169050919050565b6000612555826124ea565b61255f81856124f5565b935061256f818560208601612506565b61257881612539565b840191505092915050565b6000602082019050818103600083015261259d818461254a565b905092915050565b6000819050919050565b6125b8816125a5565b81146125c357600080fd5b50565b6000813590506125d5816125af565b92915050565b6000602082840312156125f1576125f0612425565b5b60006125ff848285016125c6565b91505092915050565b600073ffffffffffffffffffffffffffffffffffffffff82169050919050565b600061263382612608565b9050919050565b61264381612628565b82525050565b600060208201905061265e600083018461263a565b92915050565b61266d81612628565b811461267857600080fd5b50565b60008135905061268a81612664565b92915050565b600080604083850312156126a7576126a6612425565b5b60006126b58582860161267b565b92505060206126c6858286016125c6565b9150509250929050565b6000806000606084860312156126e9576126e8612425565b5b60006126f78682870161267b565b93505060206127088682870161267b565b9250506040612719868287016125c6565b9150509250925092565b61272c816125a5565b82525050565b60006020820190506127476000830184612723565b92915050565b60006020828403121561276357612762612425565b5b60006127718482850161267b565b91505092915050565b612783816124b4565b811461278e57600080fd5b50565b6000813590506127a08161277a565b92915050565b600080604083850312156127bd576127bc612425565b5b60006127cb8582860161267b565b92505060206127dc85828601612791565b9150509250929050565b60006040820190506127fb6000830185612723565b818103602083015261280d818461254a565b90509392505050565b600080fd5b600080fd5b7f4e487b7100000000000000000000000000000000000000000000000000000000600052604160045260246000fd5b61285882612539565b810181811067ffffffffffffffff8211171561287757612876612820565b5b80604052505050565b600061288a61241b565b9050612896828261284f565b919050565b600067ffffffffffffffff8211156128b6576128b5612820565b5b6128bf82612539565b9050602081019050919050565b82818337600083830152505050565b60006128ee6128e98461289b565b612880565b90508281526020810184848401111561290a5761290961281b565b5b6129158482856128cc565b509392505050565b600082601f83011261293257612931612816565b5b81356129428482602086016128db565b91505092915050565b6000806000806080858703121561296557612964612425565b5b60006129738782880161267b565b94505060206129848782880161267b565b9350506040612995878288016125c6565b925050606085013567ffffffffffffffff8111156129b6576129b561242a565b5b6129c28782880161291d565b91505092959194509250565b600080604083850312156129e5576129e4612425565b5b60006129f38582860161267b565b9250506020612a048582860161267b565b9150509250929050565b600081519050919050565b600082825260208201905092915050565b6000819050602082019050919050565b612a43816125a5565b82525050565b600082825260208201905092915050565b6000612a65826124ea565b612a6f8185612a49565b9350612a7f818560208601612506565b612a8881612539565b840191505092915050565b6000604083016000830151612aab6000860182612a3a565b5060208301518482036020860152612ac38282612a5a565b9150508091505092915050565b6000612adc8383612a93565b905092915050565b6000602082019050919050565b6000612afc82612a0e565b612b068185612a19565b935083602082028501612b1885612a2a565b8060005b85811015612b545784840389528151612b358582612ad0565b9450612b4083612ae4565b925060208a01995050600181019050612b1c565b50829750879550505050505092915050565b60006020820190508181036000830152612b808184612af1565b905092915050565b7f4e487b7100000000000000000000000000000000000000000000000000000000600052602260045260246000fd5b60006002820490506001821680612bcf57607f821691505b602082108103612be257612be1612b88565b5b50919050565b7f4552433732313a20617070726f76616c20746f2063757272656e74206f776e6560008201527f7200000000000000000000000000000000000000000000000000000000000000602082015250565b6000612c446021836124f5565b9150612c4f82612be8565b604082019050919050565b60006020820190508181036000830152612c7381612c37565b9050919050565b7f4552433732313a20617070726f76652063616c6c6572206973206e6f7420746f60008201527f6b656e206f776e6572206f7220617070726f76656420666f7220616c6c000000602082015250565b6000612cd6603d836124f5565b9150612ce182612c7a565b604082019050919050565b60006020820190508181036000830152612d0581612cc9565b9050919050565b7f4552433732313a2063616c6c6572206973206e6f7420746f6b656e206f776e6560008201527f72206f7220617070726f76656400000000000000000000000000000000000000602082015250565b6000612d68602d836124f5565b9150612d7382612d0c565b604082019050919050565b60006020820190508181036000830152612d9781612d5b565b9050919050565b7f4552433732313a20696e76616c696420746f6b656e2049440000000000000000600082015250565b6000612dd46018836124f5565b9150612ddf82612d9e565b602082019050919050565b60006020820190508181036000830152612e0381612dc7565b9050919050565b7f4552433732313a2061646472657373207a65726f206973206e6f74206120766160008201527f6c6964206f776e65720000000000000000000000000000000000000000000000602082015250565b6000612e666029836124f5565b9150612e7182612e0a565b604082019050919050565b60006020820190508181036000830152612e9581612e59565b9050919050565b7f546f6b656e494420646f206e6f74206d617463682061204e4654000000000000600082015250565b6000612ed2601a836124f5565b9150612edd82612e9c565b602082019050919050565b60006020820190508181036000830152612f0181612ec5565b9050919050565b7f4e465420616c7265616479206d696e7465640000000000000000000000000000600082015250565b6000612f3e6012836124f5565b9150612f4982612f08565b602082019050919050565b60006020820190508181036000830152612f6d81612f31565b9050919050565b7f5468697320636f6c6c656374696f6e20697320736f6c64206f75742100000000600082015250565b6000612faa601c836124f5565b9150612fb582612f74565b602082019050919050565b60006020820190508181036000830152612fd981612f9d565b9050919050565b7f596f75206861766520726563656976656420746865206d6178696d756d20616d60008201527f6f756e74206f66204e46547320616c6c6f7765642e0000000000000000000000602082015250565b600061303c6035836124f5565b915061304782612fe0565b604082019050919050565b6000602082019050818103600083015261306b8161302f565b9050919050565b7f4e6f7420656e6f75676820657468657220746f207075726368617365204e465460008201527f2e00000000000000000000000000000000000000000000000000000000000000602082015250565b60006130ce6021836124f5565b91506130d982613072565b604082019050919050565b600060208201905081810360008301526130fd816130c1565b9050919050565b600081905092915050565b7f68747470733a2f2f697066732e696f2f697066732f516d637970586a4273506160008201527f6b3378473532346664587779674d4e7153774271436a51546d72545532426f5860208201527f344c382f00000000000000000000000000000000000000000000000000000000604082015250565b6000613191604483613104565b915061319c8261310f565b604482019050919050565b60006131b2826124ea565b6131bc8185613104565b93506131cc818560208601612506565b80840191505092915050565b7f2e6a736f6e000000000000000000000000000000000000000000000000000000600082015250565b600061320e600583613104565b9150613219826131d8565b600582019050919050565b600061322f82613184565b915061323b82846131a7565b915061324682613201565b915081905092915050565b7f4e487b7100000000000000000000000000000000000000000000000000000000600052601160045260246000fd5b600061328b826125a5565b91507fffffffffffffffffffffffffffffffffffffffffffffffffffffffffffffffff82036132bd576132bc613251565b5b600182019050919050565b60006132d482856131a7565b91506132e082846131a7565b91508190509392505050565b7f4f776e61626c653a206e6577206f776e657220697320746865207a65726f206160008201527f6464726573730000000000000000000000000000000000000000000000000000602082015250565b60006133486026836124f5565b9150613353826132ec565b604082019050919050565b600060208201905081810360008301526133778161333b565b9050919050565b7f4552433732313a207472616e736665722066726f6d20696e636f72726563742060008201527f6f776e6572000000000000000000000000000000000000000000000000000000602082015250565b60006133da6025836124f5565b91506133e58261337e565b604082019050919050565b60006020820190508181036000830152613409816133cd565b9050919050565b7f4552433732313a207472616e7366657220746f20746865207a65726f2061646460008201527f7265737300000000000000000000000000000000000000000000000000000000602082015250565b600061346c6024836124f5565b915061347782613410565b604082019050919050565b6000602082019050818103600083015261349b8161345f565b9050919050565b7f4f776e61626c653a2063616c6c6572206973206e6f7420746865206f776e6572600082015250565b60006134d86020836124f5565b91506134e3826134a2565b602082019050919050565b60006020820190508181036000830152613507816134cb565b9050919050565b7f4e487b7100000000000000000000000000000000000000000000000000000000600052601260045260246000fd5b7f45524337323155524953746f726167653a2055524920736574206f66206e6f6e60008201527f6578697374656e7420746f6b656e000000000000000000000000000000000000602082015250565b6000613599602e836124f5565b91506135a48261353d565b604082019050919050565b600060208201905081810360008301526135c88161358c565b9050919050565b7f4552433732313a20617070726f766520746f2063616c6c657200000000000000600082015250565b60006136056019836124f5565b9150613610826135cf565b602082019050919050565b60006020820190508181036000830152613634816135f8565b9050919050565b7f4552433732313a207472616e7366657220746f206e6f6e20455243373231526560008201527f63656976657220696d706c656d656e7465720000000000000000000000000000602082015250565b60006136976032836124f5565b91506136a28261363b565b604082019050919050565b600060208201905081810360008301526136c68161368a565b9050919050565b600081519050919050565b600082825260208201905092915050565b60006136f4826136cd565b6136fe81856136d8565b935061370e818560208601612506565b61371781612539565b840191505092915050565b6000608082019050613737600083018761263a565b613744602083018661263a565b6137516040830185612723565b818103606083015261376381846136e9565b905095945050505050565b60008151905061377d8161245b565b92915050565b60006020828403121561379957613798612425565b5b60006137a78482850161376e565b91505092915050565b7f4552433732313a206d696e7420746f20746865207a65726f2061646472657373600082015250565b60006137e66020836124f5565b91506137f1826137b0565b602082019050919050565b60006020820190508181036000830152613815816137d9565b9050919050565b7f4552433732313a20746f6b656e20616c7265616479206d696e74656400000000600082015250565b6000613852601c836124f5565b915061385d8261381c565b602082019050919050565b6000602082019050818103600083015261388181613845565b905091905056fe7b226e616d65223a22486f75736573436f6c6c656374696f6e222c226465736372697074696f6e223a224e46547320436f6c6c656374696f6e206f6620486f7573657320334473222c22696d616765223a2268747470733a2f2f697066732e696f2f697066732f516d6566747451614b697344354a727132546745336d524751544a63584d625568736b57677033594667736553432f636f6c6c656374696f6e2e6a7067227da26469706673582212200fb14be6e59e2a8c1112d44481f2776bed6011884f2096e7ed54b5289d23d80f64736f6c634300080d0033",
  "immutableReferences": {},
  "source": "// SPDX-License-Identifier: MIT\npragma solidity ^0.8.13;\n\nimport \"../node_modules/@openzeppelin/contracts/access/Ownable.sol\";\nimport \"../node_modules/@openzeppelin/contracts/utils/Strings.sol\";\nimport \"../node_modules/@openzeppelin/contracts/token/ERC721/extensions/ERC721URIStorage.sol\";\n\ncontract HousesCollection is ERC721URIStorage, Ownable {\n    uint public constant MAX_SUPPLY = 10;\n    uint public constant COST = 0.00001 ether;\n    uint public constant TOTAL_SUPPLY = 3;\n\n    struct House {\n        uint number;\n        string color;\n    }\n\n    House[] public houses;\n\n    mapping(uint => uint) private _tokenIdMinted;\n    mapping(address => uint[]) private _tokenIdsOfOwner;\n    mapping(uint => address) private _ownerOfTokenId;\n\n    uint _tokenIdMintedSize = 0;\n\n    string[] colors = [\n        \"red\",\n        \"orange\",\n        \"yellow\",\n        \"blue\",\n        \"green\",\n        \"gray\",\n        \"white\",\n        \"black\"\n    ];\n\n    constructor() ERC721(\"Houses\", \"HSE\") {\n        for (uint i = 1; i <= MAX_SUPPLY; i++) {\n            houses.push(House(i, colors[i % colors.length]));\n        }\n    }\n\n    function mint(uint tokenId) public payable returns (uint) {\n        require(\n            tokenId <= houses.length && tokenId > 0,\n            \"TokenID do not match a NFT\"\n        );\n        require(_tokenIdMinted[tokenId] == 0, \"NFT already minted\");\n        require(\n            _tokenIdMintedSize <= MAX_SUPPLY,\n            \"This collection is sold out!\"\n        );\n        require(\n            _tokenIdsOfOwner[msg.sender].length <= TOTAL_SUPPLY,\n            \"You have received the maximum amount of NFTs allowed.\"\n        );\n        require(msg.value >= COST, \"Not enough ether to purchase NFT.\");\n\n        _safeMint(msg.sender, tokenId);\n        _setTokenURI(\n            tokenId,\n            string(\n                abi.encodePacked(\n                    \"https://ipfs.io/ipfs/QmcypXjBsPak3xG524fdXwygMNqSwBqCjQTmrTU2BoX4L8/\",\n                    Strings.toString(tokenId),\n                    \".json\"\n                )\n            )\n        );\n        _tokenIdMinted[tokenId]++;\n        _tokenIdMintedSize++;\n        _tokenIdsOfOwner[msg.sender].push(tokenId);\n        _ownerOfTokenId[tokenId] = msg.sender;\n        return tokenId;\n    }\n\n    function getOwnerOfTokenId(uint tokenId) external view returns (address) {\n        return _ownerOfTokenId[tokenId];\n    }\n\n    function contractURI() public pure returns (string memory) {\n        return\n            '{\"name\":\"HousesCollection\",\"description\":\"NFTs Collection of Houses 3Ds\",\"image\":\"https://ipfs.io/ipfs/QmefttQaKisD5Jrq2TgE3mRGQTJcXMbUhskWgp3YFgseSC/collection.jpg\"}';\n    }\n\n    function getHouses() external view returns (House[] memory) {\n        return houses;\n    }\n}\n",
  "sourcePath": "C:\\Users\\Bastien\\Code\\EPSI\\metaverse\\houses\\contracts\\HousesCollection.sol",
  "compiler": {
    "name": "solc",
    "version": "0.8.13+commit.abaa5c0e.Emscripten.clang"
  },
  "schemaVersion": "3.4.13",
  "updatedAt": "2023-06-09T22:03:31.334Z",
  "networkType": "ethereum",
  "devdoc": {
    "kind": "dev",
    "methods": {
      "approve(address,uint256)": {
        "details": "See {IERC721-approve}."
      },
      "balanceOf(address)": {
        "details": "See {IERC721-balanceOf}."
      },
      "getApproved(uint256)": {
        "details": "See {IERC721-getApproved}."
      },
      "isApprovedForAll(address,address)": {
        "details": "See {IERC721-isApprovedForAll}."
      },
      "name()": {
        "details": "See {IERC721Metadata-name}."
      },
      "owner()": {
        "details": "Returns the address of the current owner."
      },
      "ownerOf(uint256)": {
        "details": "See {IERC721-ownerOf}."
      },
      "renounceOwnership()": {
        "details": "Leaves the contract without owner. It will not be possible to call `onlyOwner` functions. Can only be called by the current owner. NOTE: Renouncing ownership will leave the contract without an owner, thereby disabling any functionality that is only available to the owner."
      },
      "safeTransferFrom(address,address,uint256)": {
        "details": "See {IERC721-safeTransferFrom}."
      },
      "safeTransferFrom(address,address,uint256,bytes)": {
        "details": "See {IERC721-safeTransferFrom}."
      },
      "setApprovalForAll(address,bool)": {
        "details": "See {IERC721-setApprovalForAll}."
      },
      "supportsInterface(bytes4)": {
        "details": "See {IERC165-supportsInterface}"
      },
      "symbol()": {
        "details": "See {IERC721Metadata-symbol}."
      },
      "tokenURI(uint256)": {
        "details": "See {IERC721Metadata-tokenURI}."
      },
      "transferFrom(address,address,uint256)": {
        "details": "See {IERC721-transferFrom}."
      },
      "transferOwnership(address)": {
        "details": "Transfers ownership of the contract to a new account (`newOwner`). Can only be called by the current owner."
      }
    },
    "version": 1
  },
  "userdoc": {
    "kind": "user",
    "methods": {},
    "version": 1
  }
}